:10000000FC7F0020310500001D05000021050000D7
:1000100000000000000000000000000000000000E0
:1000200000000000000000000000000025050000A6
:100030000000000000000000290500002D05000060
:1000400010B5064C2378002B07D1054B002B02D0AE
:10005000044800E000BF0123237010BD70000020A1
:1000600000000000081C000008B5084B002B03D05E
:100070000748084900E000BF07480368002B03D089
:10008000064B002B00D0984708BDC046000000007A
:10009000081C0000740000206C000020000000001C
:1000A00010B52E4A2E4B5A801A1C53785BB2002B87
:1000B000FBDB2C4B196A80220A431A622A4B19680F
:1000C00001220A431A601C1C012223681A42FCD137
:1000D000E3691A42F9D1244C1423236041002348D8
:1000E00000F0ACFF421EFF231A40E16899430B1C4D
:1000F0001343E3602268022313432360211C01227F
:10010000CB695B081A42FBD1174B5A8B30218A43CB
:1001100010210A435A83191C0122CB699B081A42F9
:10012000FBD1134B5622995C0120014399543B2289
:10013000995C0F24A14399549C5C03212143995459
:1001400057215C5C20435854985C0F21014099541E
:10015000985C30210143995410BDC04619400000FD
:10016000000C004000040040001C0042006CDC0257
:1001700000440041F0B557464E464546E0B4994626
:10018000002A74D0400001231843C5B23B48032322
:10019000448B24091C40012C04D0448B24091C40AE
:1001A000022CF5D1354B586AC00AC0022843586268
:1001B000181C01230AE0047E234207D02F4B596804
:1001C000C02292020A435A60002250E0047E640872
:1001D0002342F0D0294B5B8B580747D4274C012092
:1001E000237E5B081842FBD028232448C35C0B7095
:1001F000012A25D94E1C0231931EDBB2C91888464C
:10020000011C1F4B9C461F4882468027BF020124C9
:1002100028204D6863461D404D604D6853461D4083
:100220003D434D60CD69AD082C42FBD10D7E6D087C
:100230002C42FBD00D5C357001364645E9D100E01B
:1002400001220E4B58688021C9020143596048467B
:1002500000280CD05868C021890201435960181C3D
:100260000121C3699B081942FBD100E00022101C48
:100270001CBC90469946A246F0BDC046001C0042F8
:10028000FFFFFBFFFFFFFCFF024B18700022024B39
:100290001A7070478D0000208C000020F0B5384B9C
:1002A0001C786400E4B2374A0323518B09091940D2
:1002B000012904D0518B090919400229F5D1314B8C
:1002C0005A6AD20AD20222435A62191C01220B7EB8
:1002D0001A42FCD02B4B5B8B5A070CD5294B596823
:1002E000C02292020A435A60191C0122CB699B0862
:1002F0001A42FBD13DE0244B1C78251E29D0234F08
:10030000204B28260122291B795C995505E0598B41
:100310000A4202D01C4B1C7008E0197E0A42F6D03B
:10032000598B89080A420ED0174B1C70154B59681F
:10033000C02292020A435A60191C0122CB699B0811
:100340001A42FBD117E0013CE4B2002CDBD10E4B8A
:100350001C700023002811D00A4B5968C022920259
:100360000A435A60191C0122CB699B081A42FBD12F
:1003700003E0022302E0032300E00023181CF0BD89
:100380008D000020001C00428C0000209000002006
:10039000034A1378591C1170024AD0540120704747
:1003A0008C000020900000204D4B5A681E218A438B
:1003B00002210A435A604B4B996908220A439A6109
:1003C000494B1A68D204520E1204484B1A43484B48
:1003D0009A61191C0422CB681A42FCD00122454BB9
:1003E0009A601A1C53785BB2002BFBDB424A414BEC
:1003F0005A601A1C53785BB2002BFBDB8222D201BD
:100400003C4B5A801A1C53785BB2002BFBDB022258
:10041000374B9A84191C1022CB681A42FCD0374AF9
:10042000334BDA62191C1022CB681A42FCD02E4BD7
:100430001A68920E3F2A00D11F222D4B9102986A12
:100440002F4A02400A439A629A6A920A92022D49FE
:100450000A439A622C4ADA6200229A84191C1022FA
:10046000CB681A42FCD0294A214B9A84191C1022CD
:10047000CB681A42FCD01E4B998C02220A439A8404
:10048000191C1022CB681A42FCD00022194B9A602A
:100490001A1C53785BB2002BFBDB1D4A154B5A60CC
:1004A0001A1C53785BB2002BFBDB114B196A194AFB
:1004B0000A401A621A6A80218A431A620D4B03228B
:1004C0009A60154A5A601A1C53785BB2002BFBDB0A
:1004D000044B00221A725A729A72DA727047C0463E
:1004E0000040004100040040246080000606000037
:1004F00000080040000C004001040100B905FF7D28
:10050000FF03FFFFFF01000080BB0A1C2405000061
:1005100000070300FFFCFFFF030601000EBEFEE71D
:100520000DBEFEE705BEFEE702BEFEE77047C04611
:1005300010B5184B184A9A4216D0131C174A9A4203
:1005400012D0144B144A9A420ED2154B1148033064
:10055000C01A8008013080000023111C0F4AD458B3
:10056000CC5004338342FAD10E4B0F4A9A420DD03D
:100570000CD20E4B0B490331C91A8908013189008D
:10058000043BC918002204C38B42FCD100F04EF892
:10059000FEE7C0467000002000000020181C00008C
:1005A000040000206801002070000020740000207A
:1005B0000A4B1B685A1C0FD0084A0020FF210A4230
:1005C0000BD183F30888FF239A43054B9A60034BB2
:1005D0005B681847012000E0002070470020000001
:1005E00000ED00E000B589B00D4B1A680D4B9A4242
:1005F00014D0002300930523019303A80D210A4A78
:10060000032300F075FD064B064A1A60039A5A60F0
:10061000049A9A60059ADA60069A1A6109B000BDD8
:10062000F01F0000030005FF6819000008B5FFF780
:10063000D9FF1348FFF734FD00F0A0F900281AD0C5
:1006400000F038F9002816D0FFF7AEFE62B60D4B69
:100650000D4A5A600D4A106A0002000AC0210906BC
:100660000143116200229A6007221A6000F0D4F957
:1006700000F05EFAFCE700F00BF8FFF799FFDBE70C
:10068000A086010010E000E0E703000000ED00E0BC
:100690000023044A1370044A137053709370034A82
:1006A00013707047D1000020E8000020D000002027
:1006B00070B5041C0D1C131C3F2A00D93F23DEB269
:1006C0001C4A1278002A05D11E1C5BB2002B00D0F8
:1006D0000126F6B23120FFF7D7FD201CFFF758FEA8
:1006E0000120FFF7DBFD041C8A2001F08FFA0020B7
:1006F000002C1DD13120FFF7C7FD301CFFF748FE4D
:10070000002E0AD02C1C0135731EDBB2ED182078A8
:10071000FFF73EFE0134AC42F9D10120FFF7BEFDE8
:10072000041C8A2001F072FA60426041404230406D
:1007300070BDC046D000002008B5031C0A1C042070
:10074000191CFFF7B5FF08BD08B5C9B2FFF7F4FFE4
:1007500008BDC04610B582B000226B46DA71312068
:10076000FFF792FD0120FFF713FE0120FFF796FD32
:10077000041C8A2001F04AFA002C09D13120694674
:10078000073101220123FFF7F5FC8A2001F03EFA30
:100790006B46D87902B010BDF0B5474680B4071C4F
:1007A0008846151C1E1C2A4B1B78002B04D1131CD9
:1007B000002A00D00123DDB22C1C002E02D0FFF74E
:1007C000C9FF041C002CF7D0012D1BD13120FFF7ED
:1007D0005BFD381CFFF7DCFD0120FFF75FFD041C0B
:1007E0008A2001F013FA002CE6D131204146012283
:1007F0000123FFF7BFFC041C8A2001F007FA012C3B
:1008000021D0D9E7231CAC4200D92B1CDDB231200A
:10081000FFF73AFD381CFFF7BBFD281CFFF7B8FDBA
:100820000120FFF73BFD041C8A2001F0EFF9002CAA
:10083000C2D1312041462A1C0123FFF79BFC041C36
:100840008A2001F0E3F9201C04BC9046F0BDC046AC
:10085000D000002008B5031C0A1C0220191C01232B
:10086000FFF79AFF08BDC04608B5C9B2FFF7F2FF0F
:1008700008BDC04670B5051C0E1E0AD00C1CE1B2A6
:10088000281CFFF7E7FF002801D0241A2D18002CA0
:10089000F5D1301C70BDC04610B5FFF7F5FC012046
:1008A000FFF7FCFC041C8A2001F0B0F960426041B3
:1008B000C0B210BD30B583B03120FFF7E5FC052094
:1008C000FFF766FD0120FFF7E9FC051C8A2001F017
:1008D0009DF90024002D13D16946073100230B70C8
:1008E000312001220123FFF745FC012804D16B468A
:1008F000DC792A3C63425C41E4B28A2001F086F94B
:10090000201C03B030BDC04670B582B0041C00236B
:100910000370437083700C4D2E7801232B700720D9
:1009200001A903220023FFF737FF2E7000230328BD
:1009300007D101AB1A7822705A7862709B78A37045
:100940000123181C02B070BDD000002000B583B098
:100950006946073100230B7008200122FFF71CFFB6
:10096000031C0020012B06D16B46D879031C103BD9
:10097000012B00D9012003B000BDC04630B583B0C3
:1009800000231F4A13701F4A13703120FFF784FFA2
:1009900000282ED06946033103230B700A20012260
:1009A000FFF786FE174C25780123237001A816490E
:1009B000032200F093FB092001A90322FFF778FE30
:1009C0002570FFF7C3FF0E4C20701048FFF79CFF07
:1009D0002378102B04D10D4B1B78012B06D808E08F
:1009E000112B06D1094B1B78002B02D00122054B9D
:1009F0001A70034B1878431E9841C0B203B030BD43
:100A0000D1000020D000002074190000E800002070
:100A100008B5FFF799FE08BD10B582B00024009418
:100A2000052301930B480C210B4A032300F060FBC4
:100A300040220A4B1A600A4B9B689BB2094A13601A
:100A40009B01094A1360094B1C607A22084B1A70FB
:100A500002B010BD50010020781B000008010020EA
:100A60000040004100010020FC0000204C0100205B
:100A7000F8000020F0B585B01F4B1B78002B2DD05F
:100A8000042901D103682CE0022901D1038828E060
:100A900003784D0004A842190B3A002D25D10DE032
:100AA000341C1C40092C02D83C43147001E037343C
:100AB00014701B09013A0130A842F1D301A8302378
:100AC000037078234370013149000A2343544519C8
:100AD0000D23EB700231FFF79BFF0AE0FFF798FF51
:100AE00007E04D0004A842190B3A00200F263027DA
:100AF000D6E705B0F0BDC046D8000020BFF34F8F49
:100B0000034A044BDA60BFF34F8FC046FDE7C0468F
:100B10000400FA0500ED00E00B0A5840400009020D
:100B2000024BC05A484080B27047C0467819000056
:100B3000F0B55F4656464D464446F0B485B0C84CC5
:100B4000201C4021FFF790FEC64B1860C64B1C606E
:100B50000022C64B1A60002800D14DE2C24CC448A6
:100B600083460120834421680B78FF2B00D124E2C7
:100B7000232B00D0F2E1BF4B1B78002B03D0BE48E3
:100B80000221FFF745FFBD4B1B78532B44D1B54BDA
:100B90001B68B64A1268934221D9B34801680131F3
:100BA00001600132B14802609A1AB54B186882425E
:100BB00002D2B44B1A6001E0B24B1860B24B186815
:100BC000B04D2A6800F08AFA2B68A84A15685919AE
:100BD0001160A54A1768F9181160AC4A1370A34B4D
:100BE0001A68013A1A60A04B186801381860A74BC0
:100BF0001B78A34A11688B420CD2C91AFFF73AFE40
:100C0000021CA24B1B78A0490868C018964B1968B3
:100C100000F064FAC04692E1522B06D19A4B186854
:100C2000974B1968FFF790FD89E14F2B05D1964B43
:100C30001B68934A12681A7081E1482B05D1924BC8
:100C40001B688F4A12681A8079E1572B05D18E4BA9
:100C50001B688B4A12681A6071E16F2B05D18A4BB1
:100C600018680121FFF706FF69E1682B08D1844865
:100C7000854B1B681B8803600221FFF7FBFE5EE1CA
:100C8000772B08D1804B1B681B687D4803600421CB
:100C9000FFF7F0FE53E1472B01D1FFF72FFF542B55
:100CA00007D10122734B1A7073480221FFF7B0FE7F
:100CB00045E14E2B0BD16F4B1B78002B03D16E48B7
:100CC0000221FFF7A5FE00226A4B1A7037E1562B6E
:100CD00050D16F480121FFF79BFE6E4D281C00F09C
:100CE00039FA011C281CFFF793FE6B4D281C0121CB
:100CF000FFF78EFE69481121FFF78AFE281C0121AB
:100D0000FFF786FE0022594B1A60574B5846186071
:100D100057490B78002B00D15DE15449524A0B68CA
:100D200001330B601368581C10601B78002BF6D140
:100D30004E4D4F482968FFF76BFE57480121FFF7DA
:100D400067FE00232B60564A474B1A6051E10B683F
:100D500001330B601368581C10601B78002BF6D110
:100D6000424B19684F48FFF753FE43480221FFF7F3
:100D70004FFEE4E0582B1DD1414B18684A4B1B68CD
:100D8000984212D2494A4A4B9C460121494E464D4F
:100D90004308D36167461780137D1942FCD037683A
:100DA000BB00C0182B688342F2D843480321FFF7E9
:100DB0002FFEC4E0592B00D088E0314B1E68002E76
:100DC00004D1314B1A683D4B1A6043E0B6083B4BE7
:100DD0001D682D4B1F68354B5A6880218A435A6025
:100DE000002E37D0191C0120324A92460023994622
:100DF0009046334A0A800B7D1842FCD053461B684C
:100E0000032B16D9002E16D04A464B460197B446FE
:100E10002E1CB758019DAF50013347463F68BD08AF
:100E20009D420AD904326345F3D1019F351C6646C1
:100E300006E04B4604E04B4602E0019F351C664647
:100E4000204A0A800A7D1042FCD09A00BF18AD18D3
:100E5000F61ACED11C480321FFF7DAFD6FE0C04639
:100E60000C010020F0000020F4000020040100200C
:100E7000901B0000D8000020841B0000F800002018
:100E80005C010020600100204C010020EC000020EB
:100E9000881B0000500100208C1B0000BC1B0000C0
:100EA0009D1B00009C1B0000FC0000200040004136
:100EB00002A5FFFF08010020A81B0000D4000020AD
:100EC00044A5FFFF04A5FFFFAC1B00005A2B32D145
:100ED0004D4B1F684D4B1B68002B0CD03D1CFF1861
:100EE0000026311C2878FFF717FE011C0135BD4292
:100EF000F8D1061C00E0002645480121FFF788FDD7
:100F0000301C6B460F336E4607360F252A1C0240F5
:100F10000009111C3031092A00DD07311970013B2D
:100F2000B342F3D102A80821FFF772FD394803212B
:100F3000FFF76EFD03E0212B01D1FFF7DFFD7A22E1
:100F4000354B1A700022314B1A60344B1B78002B42
:100F500033D033480121FFF75BFD2EE01A1C303AF5
:100F6000092A06D8294A303B156829010B4313602A
:100F700023E01A1C413A052A06D8244A373B176851
:100F800039010B43136018E01A1C613A052A06D890
:100F90001E4A573B106801010B4313600DE02C2BD8
:100FA00006D11A4B184A1968116000221A6004E031
:100FB000194A13700022154B1A601A4A136801333C
:100FC0001360194A116801311160184A126893427E
:100FD00000D2C8E510E0134D15482968FFF718FD49
:100FE00014480121FFF714FD00232B60124A0E4B19
:100FF0001A600C490C4AAAE605B03CBC90469946DA
:10100000A246AB46F0BDC0464C0100205C0100206A
:10101000B01B0000B41B0000F8000020D800002026
:10102000B81B000004010020F4000020F0000020A4
:10103000901B00008C1B00009D1B0000002934D079
:101040000123002210B488422CD301242407A1429A
:1010500004D2814202D209011B01F8E7E400A14257
:1010600004D2814202D249005B00F8E7884201D3F2
:10107000401A1A434C08A04202D3001B5C082243CA
:101080008C08A04202D3001B9C082243CC08A0423B
:1010900002D3001BDC082243002803D01B0901D027
:1010A0000909E3E7101C10BC7047002801D000209C
:1010B000C04307B4024802A14018029003BDC046D5
:1010C000190000000029F0D003B5FFF7B9FF0EBCEE
:1010D0004243891A1847C0467047C04610B50023DE
:1010E000934203D0CC5CC4540133F9E710BD000037
:1010F0000CB430B5164B9DB00C1C1D6804D58B2369
:1011000001202B6040421DE0822302A99B008B81BD
:101110000023029008619C4200D0631E8B604B61EB
:1011200001235B42CB81209A21AB281C019300F064
:1011300079F8421C01DA8B232B60002C02D0029A32
:10114000002313701DB030BC08BC02B01847C04665
:10115000600000200023C25C0133002AFBD1581E2E
:1011600070470000F0B58D6885B0071C0C1C039219
:101170000193AB4245D390228B89D20013423DD0DC
:1011800062690326564309692068F20F401A9619CE
:101190000290021C0198013212187610964200D279
:1011A000161C381C5A050FD5311C00F021FB051EFA
:1011B00013D0029A2169FFF791FFA289184B1340BF
:1011C00080221343A38111E0321C00F065FB051E51
:1011D0000CD1381C216900F0C3FA0C233B60A389B1
:1011E000402213430120A381404217E0029B256166
:1011F000ED1825606661019DF61AA6600198A84267
:1012000000D2019D2A1C2068039900F090FAA26880
:101210000020531BA36023685D19256005B0F0BD55
:101220007FFBFFFFF0B59FB0039005938B890E1CE9
:10123000171C19060FD53269002A0CD1402100F085
:10124000D7FA30603061002803D103990C230B607A
:10125000C9E04023736106AD00236B6120236B76E8
:101260003023AB763C1C2378002B03D1E21B029287
:1012700011D003E0252BF9D00134F4E70398311C99
:101280003A1C029BFFF76EFF013000D1A6E06969AE
:10129000029A8B186B612378002B00D19EE001220B
:1012A00052426A606A4600235B3201342B60EB6075
:1012B000AB601370AB654E4F2178381C052200F0EF
:1012C0002BFA002807D0C71B2B680120B840184311
:1012D00028600134EFE72B68D90603D56A46202140
:1012E0005B3211701A0703D56A462B215B321170ED
:1012F00022782A2A01D0099B0EE0059A111D126856
:101300000591002A01DB099204E05242EA600222C0
:1013100013432B60013409E02278303A092A04D8BB
:101320000A214B4301349B18F6E7099323782E2BAF
:1013300018D163782A2B09D1059B02341A1D1B682A
:101340000592002B0DDA01235B420AE001340023F1
:101350002278303A092A04D80A214B4301349B18D9
:10136000F6E70793234F2178381C032200F0D4F9C5
:10137000002806D0C71B2B684020B84018432860BF
:10138000013421781C480622671C297600F0C4F934
:10139000002812D0194B002B06D1059B07220733DA
:1013A00093430833059314E005AB00930398291C7D
:1013B000321C134B00E000BF07E005AB009303981D
:1013C000291C321C0E4B00F091F804900499013155
:1013D00004D06A69049953186B6143E7B3895A06CC
:1013E00001D40B9801E0012040421FB0F0BDC0467F
:1013F000D21B0000D81B0000DC1B00000000000016
:1014000065110000F7B5151C01930A698B68061C6D
:101410000C1C934200DA131C221C2B6043321278FE
:10142000002A01D001332B602068800602D52B688A
:1014300002332B60216806270F401FD0231C433343
:101440001B785A1E9341226892061FD5E11840313D
:101450003020C870211C5A1C45310978A21840322E
:101460000233D17012E0221C301C01991932012381
:10147000089FB847013011D0009F01370097E068FE
:101480002968009F431A9F42EDDBD7E7221C301CDE
:1014900001994332089FB847013002D101204042F0
:1014A00023E0206806212B68E2680140002504291A
:1014B00003D1D51AEB43DB171D40A26823699A427A
:1014C00001DDD31AED1800270097009FAF420BDA19
:1014D000221C301C01991A320123089FB8470130A1
:1014E000DCD0009F0137EFE70020FEBDF0B50D1CFA
:1014F0008BB0433506920590079304950B7E0C1C28
:10150000109A6E2B00D1A7E011D8632B22D009D8F6
:10151000002B00D1B0E0582B00D0C0E045310B705B
:101520007B4D4EE0642B1CD0692B1AD0B7E0732B97
:1015300000D1A5E009D86F2B29D0702B00D0AEE0E8
:101540000E68202333430B6036E0752B1FD0782BB9
:1015500032D0A4E013680D1C191D423511601B68C0
:101560009FE0216813680E0603D5191D11601E68DF
:1015700005E04806F9D5191D116000215E5E644B37
:10158000002E3BDA049D2D2276422A7036E0216837
:1015900013680E0603D5191D11601E6804E0480685
:1015A000F9D5191D1E881160594B227E0393082717
:1015B0006F2A1ED00A271CE0231C78214533554D85
:1015C000197011682368081D039510601E0601D567
:1015D0000E6802E05806FBD50E88D90702D52022F6
:1015E000134323601027002E03D1226820239A433F
:1015F0002260231C002243331A7001E003930A2760
:101600006368A360002B03DB2568042295432560F3
:10161000002E02D1049D002B0ED0049D301C391CDD
:10162000FFF750FD0398013D435C301C2B70391CC3
:10163000FFF704FD061EF1D1082F09D12168C90763
:1016400006D5626823699A4202DC013D30232B7083
:10165000049E731B23612AE0086813684969050624
:1016600004D5181D10601B68196005E04606F8D502
:10167000181D10601B68198000232361049D16E06B
:101680001368191D11601D68281CFFF763FD63684E
:101690002061984200D923612069606004E0251C24
:1016A00042352B7001232361049E00233370079E73
:1016B00005980096211C09AA069BFFF7A3FE01309E
:1016C00002D10120404221E02A1C05980699236995
:1016D000079DA8470130F4D02668B60705D4099BBA
:1016E000E068984212DA181C10E00025E0680999B9
:1016F000431A9D42F3DA221C0598069919320123F8
:10170000079EB0470130DCD00135EFE70BB0F0BDEC
:10171000E31B0000F41B0000C9B28218904204D001
:1017200003788B4202D00130F8E70020704770B593
:10173000814201D300230CE08C18A042FAD2851814
:10174000131C013B0BD351426618F65C6918CE544A
:10175000F7E7934203D0CC5CC4540133F9E770BD82
:1017600030B5002940D004390B68002B00DAC918C5
:101770001E4A1368141C002B02D14B60116033E029
:1017800099420FD208680A189A4205D11368526824
:10179000C01808604A6000E04B60216024E08A4283
:1017A00003D8131C5A68002AF9D11D685C198C42B1
:1017B0000BD10968691858181960904214D114683F
:1017C0005268091919605A600EE08C4202D90C2344
:1017D000036009E008680C18944203D11468526849
:1017E000001908604A60596030BDC046E000002022
:1017F00070B50323CD1C9D430835061C0C2D01D26A
:101800000C2501E0002D3FDB8D423DD3204B1C68B1
:101810001A1C211C002913D00868431B0DD40B2B64
:1018200002D90B60CC181EE08C4202D163681360B1
:101830001AE0486860600C1C16E00C1C4968E9E777
:10184000144C2068002803D1301C00F04BF82060B5
:10185000301C291C00F046F8431C15D0C41C03237F
:101860009C4384420AD12560201C0B300722231D93
:101870009043C31A0BD05A42E25008E0211A301CA0
:1018800000F030F80130EED10C233360002070BD41
:10189000E0000020DC000020F8B5061C0C1C151C24
:1018A000002904D1111CFFF7A3FF041C18E0002A33
:1018B00003D1FFF755FF2C1C12E000F025F8A842D9
:1018C0000ED2301C291CFFF793FF071E07D0211CE6
:1018D0002A1CFFF703FC301C211CFFF741FF3C1CB6
:1018E000201CF8BD38B5074C0023051C081C2360DC
:1018F00000F014F8431C03D12368002B00D02B60A8
:1019000038BDC0466401002004390B68181F002B45
:1019100002DAC8581B18181F70470000094A1368DC
:10192000002B0CD018186946884202D81060181C89
:101930007047054B0C2201201A604042F8E7034B28
:101940001360EFE7E400002064010020680100203C
:10195000F8B5C046F8BC08BC9E467047F8B5C0460E
:10196000F8BC08BC9E4670475625642E25642E257B
:1019700064000000030004000000211042206330D6
:101980008440A550C660E770088129914AA16BB1D7
:101990008CC1ADD1CEE1EFF131121002733252227F
:1019A000B5529442F772D662399318837BB35AA327
:1019B000BDD39CC3FFF3DEE362244334200401144F
:1019C000E664C774A44485546AA54BB52885099577
:1019D000EEE5CFF5ACC58DD553367226111630061F
:1019E000D776F6669556B4465BB77AA719973887C7
:1019F000DFF7FEE79DD7BCC7C448E5588668A778DF
:101A00004008611802282338CCC9EDD98EE9AFF916
:101A1000488969990AA92BB9F55AD44AB77A966ABE
:101A2000711A500A333A122AFDDBDCCBBFFB9EEB66
:101A3000799B588B3BBB1AABA66C877CE44CC55C8E
:101A4000222C033C600C411CAEED8FFDECCDCDDDB6
:101A50002AAD0BBD688D499D977EB66ED55EF44E5E
:101A6000133E322E511E700E9FFFBEEFDDDFFCCF06
:101A70001BBF3AAF599F788F8891A981CAB1EBA15A
:101A80000CD12DC14EF16FE18010A100C230E320D6
:101A90000450254046706760B9839893FBA3DAB37E
:101AA0003DC31CD37FE35EF3B1029012F322D23226
:101AB0003542145277625672EAB5CBA5A89589854E
:101AC0006EF54FE52CD50DC5E234C324A014810476
:101AD0006674476424540544DBA7FAB79987B8971E
:101AE0005FE77EF71DC73CD7D326F2369106B016C6
:101AF00057667676154634564CD96DC90EF92FE9DE
:101B0000C899E9898AB9ABA9445865480678276815
:101B1000C018E1088238A3287DCB5CDB3FEB1EFBBD
:101B2000F98BD89BBBAB9ABB754A545A376A167A65
:101B3000F10AD01AB32A923A2EFD0FED6CDD4DCD8D
:101B4000AABD8BADE89DC98D267C076C645C454CB5
:101B5000A23C832CE01CC10C1FEF3EFF5DCF7CDF5D
:101B60009BAFBABFD98FF89F176E367E554E745E05
:101B7000932EB23ED10EF01E25642E25642E2564D0
:101B8000000000000A0D00007600000020000000A8
:101B900044656320203920323031390031343A3500
:101BA000343A333200000000580A0D00590A0D0083
:101BB0005A000000230A0D003E0000005B4F7065D4
:101BC0006E42696F6E6963733A58595A5D0000003E
:101BD0004300232D302B2000686C4C006566674560
:101BE0004647003031323334353637383941424395
:101BF0004445460030313233343536373839616246
:0C1C000063646566000000000000000046
:0C1C0C00BFF35F8F01380028FAD1704749
:101C180000000000000000000000000000000000BC
:101C280000000000000000000000000000000000AC
:101C3800D01B0000000000000000000000000000B1
:101C4800000000000000000000000000000000008C
:101C5800000000000000000000000000000000007C
:101C6800000000000000000000000000000000006C
:101C78000000002069000000410000000000000092
:0400000300000531C3
:00000001FF
